:020000040800F2
:10000000A0060020310200086D0200086F020008FF
:100010007102000873020008750200080000000069
:10002000000000000000000000000000770200084F
:1000300079020008000000007B0200087D02000831
:100040007F0200087F0200087F0200087F0200088C
:100050007F0200087F0200087F0200087F0200087C
:100060007F0200087F0200087F0200087F0200086C
:100070007F0200087F0200087F0200087F0200085C
:100080007F0200087F0200087F0200087F0200084C
:100090007F0200087F0200087F0200087F0200083C
:1000A0007F0200087F0200087F0200087F0200082C
:1000B0007F0200087F0200087F0200087F0200081C
:1000C0007F0200087F0200087F0200087F0200080C
:1000D0007F0200087F0200087F0200087F020008FC
:1000E0007F0200087F0200087F0200087F020008EC
:1000F0007F0200087F0200087F0200087F020008DC
:100100007F0200087F0200087F0200087F020008CB
:100110007F0200087F0200087F0200087F020008BB
:100120007F0200087F0200087F0200087F020008AB
:100130007F0200087F0200087F0200087F0200089B
:100140007F0200087F0200087F0200087F0200088B
:100150007F0200087F0200087F0200087F0200087B
:100160007F0200087F0200087F0200087F0200086B
:100170007F0200087F0200087F02000800000000E4
:100180007F0200087F02000800F002F800F041F84A
:100190000AA090E8000C82448344AAF10107DA45E2
:1001A00001D100F036F8AFF2090EBAE80F0013F0F3
:1001B000010F18BFFB1A43F001031847F4080000B1
:1001C00014090000103A24BF78C878C1FAD8520741
:1001D00024BF30C830C144BF04680C6070470000C1
:1001E0000023002400250026103A28BF78C1FBD840
:1001F000520728BF30C148BF0B607047642900F028
:10020000A180002070471FB500F04CFC1FBD10B549
:1002100010BD00F06CF91146FFF7F5FF00F0B6FBDA
:1002200000F08AF903B4FFF7F2FF03BC00F092F983
:1002300016481749174B99423CBF50F8042B41F818
:10024000042BF8D314494FF000028B4238BF43F817
:10025000042BFAD3DFF84400016841F47001016017
:10026000BFF34F8FBFF36F8F0D480047FEE7FEE7E8
:10027000FEE7FEE7FEE7FEE7FEE7FEE7FEE7FEE756
:1002800008480949094A0A4B70470000D00A00088B
:100290000000002020000020A006002088ED00E0E3
:1002A00089010008A0000020A0060020A002002074
:1002B000A00200200FB41CB5074B06AA7B44694678
:1002C0000090059800F0FBF80020694600F00AF95C
:1002D0001CBC5DF814FB0000250200002DE9F04174
:1002E0000E460446002020622046E168884730B36D
:1002F000252805D0D4E901219047206A401CF2E767
:10030000E168204600278847050018D0A5F1410084
:10031000192802D820354FF4006732462946204676
:100320002760FFF76BFF40B1012804D0F61D26F0CF
:1003300007060836D8E7361DD6E72846DAE7206AEA
:10034000BDE8F0812DE9F0410646002410687529CA
:10035000314616A510D0AFF30080002802DA4042E3
:1003600013A507E031688A0701D512A502E0490705
:1003700004D511A5012401E0AFF3008000210A2279
:1003800006F1240709E0B0FBF2FCB0FBF2F302FB3C
:100390001C00303078541846491C0028F3D12346FD
:1003A0002A463046BDE8F04100F02AB800000000BF
:1003B0002D0000002B0000002000000010B5431CA1
:1003C00002E010F8011B71B18107FAD14FF0013240
:1003D00002C88C1A8C4314EAC211F9D0C01A0A065A
:1003E00003D0C01E10BDC01A10BD0A0401D0801E6B
:1003F00010BD0902FCD0401E10BD70477047704709
:100400002DE9F0470D4699469246044600F124082E
:100410000168880604D5E06921F01001216000E040
:100420000120A84201DD471B00E00027A1697A19DD
:1004300002EB0900081AA0612078C00602D4204609
:10044000AFF30080002608E0D4E901211AF8060085
:100450009047206A401C761C20624E45F4DB2078D1
:10046000C0060AD52046AFF3008006E0D4E901219A
:1004700030209047206A401C2062381EA7F10107F7
:10048000F4DC07E0D4E9012118F805009047206A60
:10049000401C2062281EA5F10105F3DC2046AFF3C5
:1004A00000802078000602D50220BDE8F0870120F8
:1004B000FBE7000001694A1C02610878704700B53B
:1004C0008FB0CDE901310021059105497944CDE98D
:1004D000031011466846FFF701FF0FB000BD000092
:1004E000E5FFFFFF0A6802F8010B0A6070477546D6
:1004F00000F02CF8AE4605006946534620F0070090
:10050000854618B020B5FFF7BBFEBDE820404FF090
:1005100000064FF000074FF000084FF0000B21F0ED
:100520000701AC46ACE8C009ACE8C009ACE8C009BA
:10053000ACE8C0098D46704710B50446AFF30080A3
:100540002046BDE81040FFF76DBE00000048704730
:100550004000002001491820ABBEFEE72600020043
:10056000704700002348C06C40F012002149C86465
:100570006FF03000204908600846006840F0100025
:1005800008601D480830006820F030001A49083122
:1005900008600846006840F030000860081F0068E6
:1005A00020F00400091F086013480C30006820F098
:1005B000300011490C3108606FF440300F49086079
:1005C0000846006840F4803008600846806820F4DF
:1005D000403088600846806840F4403088600846B3
:1005E000406820F4807048600846C06820F44030BD
:1005F000C860704700100240000400480010004826
:100600000348006820F004000149086070470000BA
:10061000140400480348006840F0040001490860E1
:1006200070470000140400485E49096821F0070182
:100630005C4A11601146096841F0020111605A4993
:10064000096841F48071584A116000BF5649096831
:1006500001F480610029F9D010205349496821F044
:10066000F851514A51601146496841EA00615160B0
:100670001146096821F08071116000BF4A4909687C
:1006800001F00071B1F1007FF8D04749C96821F04D
:100690000301454AD1601146C96841F00201D160A9
:1006A0001146C96821F4FE4141F4A051D1601146C0
:1006B000C96821F0700141F01001D1601146C9688C
:1006C00021F0C061D1601146C96841F08071D160EC
:1006D0001146096841F08071116000BF3249096814
:1006E00001F000710029F9D02F49896821F0030138
:1006F0002D4A91601146896841F00301916000BF65
:100700002949896801F00C010C29F9D12649896829
:1007100021F0F001244A91601146896821F4E061DA
:1007200091601146896821F4605191601146096811
:1007300021F08061116000BF1B49096801F08061F0
:10074000B1F1806FF8D01849096921F4FE41164AC9
:1007500011611146096941F4C051116111460969DD
:1007600041F4003111611146096941F48031116190
:100770001146096841F08061116000BF0A490968AB
:1007800001F080610029F9D007498831096821F416
:100790004001054AC2F888101146096E41F4001163
:1007A0001166704700200240001002401A48C06CD9
:1007B00040F008001849C8641848006820F47050D8
:1007C000164908600846006840F420500860134845
:1007D0002030006840F0EE601049203108600F487A
:1007E0000830006840F470500C4908310860081D5A
:1007F000006820F47050091D08600846006840F445
:10080000A05008600548001D006820F06000034902
:10081000091D08607047000000100240000C0048ED
:1008200000B50D48806D40F400300B4988650A48DA
:100830008830006820F00C00C1F888000846D0F825
:10084000880040F00400C1F88800FFF7AFFF0348BC
:1008500000F010F800BD000000100240004400400D
:10086000642242430723B2FBF3F100BF4A1E111E6C
:10087000FCD17047016821F001010160016821F09D
:1008800010210160016821F400410160416821F4F8
:100890004051416042F28D01C160016841F00C019C
:1008A00001601E4988421BD1016841F020010160AE
:1008B000016821F040010160016821F01001016030
:1008C000016821F080010160016821F480710160FC
:1008D000016821F040010160016821F0010101601F
:1008E0000F49884209D1016A41F0400101620D4976
:1008F000096841F0C0010B4A1160016841F0010133
:10090000016000BFC16901F400110029FAD000BFE5
:10091000C16901F480010029FAD07047004C004001
:100920000044004008380140F0B504460E46174622
:1009300000250CE000BFE06900F080000028FAD03C
:10094000705D20854FF49670FFF78AFF6D1CBD42E5
:10095000F0D300BFE06900F040000028FAD0E06961
:1009600020F04000E061F0BD0748C06C40F001009D
:100970000549C8644FF09040006820F003004FF034
:10098000904108607047000000100240FFF74CFEE5
:10099000FFF7E8FDFFF7E8FF00F074F83048806DDE
:1009A00040F001002E49886549F640400106886202
:1009B0000006406940F0010048610846006A20F0E6
:1009C000010008620846806940F00100886108461D
:1009D000806920F0F00088610846006A20F00D0070
:1009E00008620846006A40F0010008620846006894
:1009F00040F001000860FFF713FF2FE04FF0804048
:100A0000006900F0020048B34FF08040446B22467A
:100A100014A11848FFF74EFC1648FFF7CFFC054617
:100A20002A4614491448FFF77FFF1448FFF7C6FC15
:100A300005462A4611491048FFF776FF10480D4930
:100A400002680D48FFF770FF0C48FFF7B7FC05463A
:100A50002A460A490848FFF767FF00BFCEE70000B3
:100A600000100240434352312056616C7565203DB1
:100A700020256400200000200044004016000020D3
:100A80001C00002007E000F007F810B1FFF7C2FDDE
:100A900001E0FFF7B5FDF6E74FF09040006900F088
:100AA000010070474FF04070E1EE100A70470000FF
:100AB000D00A00080000002020000000C401000847
:100AC000F00A00082000002080060000E001000875
:100AD00000436F756E74203E203000436F756E7456
:100AE000203C3D2030000D0A000000000000000006
:040000050800018965
:00000001FF
