:020000040800F2
:10000000B8060020290200086502000867020008FF
:10001000690200086B0200086D0200080000000081
:100020000000000000000000000000006F02000857
:100030007102000800000000730200087502000849
:1000400077020008770200087702000877020008AC
:10005000770200087702000877020008770200089C
:10006000770200087702000877020008770200088C
:10007000770200087702000877020008770200087C
:10008000770200087702000877020008770200086C
:10009000770200087702000877020008770200085C
:1000A000770200087702000877020008770200084C
:1000B000770200087702000877020008770200083C
:1000C000770200087702000877020008770200082C
:1000D000770200087702000877020008770200081C
:1000E000770200087702000877020008770200080C
:1000F00077020008770200087702000877020008FC
:1001000077020008770200087702000877020008EB
:1001100077020008770200087702000877020008DB
:1001200077020008770200087702000877020008CB
:1001300077020008770200087702000877020008BB
:1001400077020008770200087702000877020008AB
:10015000770200087702000877020008770200089B
:10016000770200087702000877020008770200088B
:1001700077020008770200087702000800000000FC
:10018000770200087702000800F002F800F03CF85F
:100190000AA090E8000C82448344AAF10107DA45E2
:1001A00001D100F031F8AFF2090EBAE80F0013F0F8
:1001B000010F18BFFB1A43F0010318473006000077
:1001C00050060000103A24BF78C878C1FAD8520708
:1001D00024BF30C830C144BF04680C6070470000C1
:1001E0000023002400250026103A28BF78C1FBD840
:1001F000520728BF30C148BF0B6070471FB500F0E1
:10020000EFFA1FBD10B510BD00F072F81146FFF7F0
:10021000F5FF00F09FFA00F090F803B4FFF7F2FF4B
:1002200003BC00F097F8000016481749174B994295
:100230003CBF50F8042B41F8042BF8D314494FF07D
:1002400000028B4238BF43F8042BFAD3DFF8440096
:10025000016841F470010160BFF34F8FBFF36F8FEE
:100260000D480047FEE7FEE7FEE7FEE7FEE7FEE794
:10027000FEE7FEE7FEE7FEE708480949094A0A4BA0
:10028000704700000C080008000000203800002023
:10029000B806002088ED00E089010008B8000020C1
:1002A000B8060020B8020020B802002010B5431C98
:1002B00002E010F8011B71B18107FAD14FF0013251
:1002C00002C88C1A8C4314EAC211F9D0C01A0A066B
:1002D00003D0C01E10BDC01A10BD0A0401D0801E7C
:1002E00010BD0902FCD0401E10BD7047704770471A
:1002F000754600F02BF8AE4605006946534620F0DF
:100300000700854618B020B5FFF7B6FFBDE82040CE
:100310004FF000064FF000074FF000084FF0000BC1
:1003200021F00701AC46ACE8C009ACE8C009ACE874
:10033000C009ACE8C0098D46704710B50446AFF35C
:1003400000802046BDE81040FFF767BF00487047B7
:100350005800002001491820ABBEFEE7260002002D
:10036000704700002348C06C40F012002149C86467
:100370006FF03000204908600846006840F0100027
:1003800008601D480830006820F030001A49083124
:1003900008600846006840F030000860081F0068E8
:1003A00020F00400091F086013480C30006820F09A
:1003B000300011490C3108606FF440300F4908607B
:1003C0000846006840F4803008600846806820F4E1
:1003D000403088600846806840F4403088600846B5
:1003E000406820F4807048600846C06820F44030BF
:1003F000C860704700100240000400480010004828
:100400005E49096821F007015C4A116011460968DC
:1004100041F0020111605A49096841F48071584A5B
:10042000116000BF5649096801F480610029F9D0C4
:1004300010205349496821F0F851514A5160114642
:10044000496841EA006151601146096821F08071F4
:10045000116000BF4A49096801F00071B1F1007FE5
:10046000F8D04749C96821F00301454AD1601146D7
:10047000C96841F00201D1601146C96821F4FE410A
:1004800041F4A051D1601146C96821F0700141F0DA
:100490001001D1601146C96821F0C061D1601146D8
:1004A000C96841F08071D1601146096841F08071DE
:1004B000116000BF3249096801F000710029F9D0CC
:1004C0002F49896821F003012D4A916011468968FE
:1004D00041F00301916000BF2949896801F00C01D6
:1004E0000C29F9D12649896821F0F001244A91604C
:1004F0001146896821F4E06191601146896821F410
:10050000605191601146096821F08061116000BF5F
:100510001B49096801F08061B1F1806FF8D018497A
:10052000096921F4FE41164A11611146096941F435
:10053000C05111611146096941F400311161114640
:10054000096941F4803111611146096841F0806107
:10055000116000BF0A49096801F080610029F9D0E3
:1005600007498831096821F44001054AC2F888101A
:100570001146096E41F400111166704700200240D7
:10058000001002401A48C06C40F008001849C864C6
:100590001848006820F47050164908600846006842
:1005A00040F42050086013482030006840F0EE60AE
:1005B0001049203108600F480830006840F470503E
:1005C0000C4908310860081D006820F47050091DAE
:1005D00008600846006840F4A05008600548001D07
:1005E000006820F060000349091D086070470000A2
:1005F00000100240000C004800B50D48806D40F42A
:1006000000300B4988650A488830006820F00C00EB
:10061000C1F888000846D0F8880040F00400C1F80E
:100620008800FFF7AFFF034800F010F800BD00009E
:100630000010024000440040642242430723B2FB02
:10064000F3F100BF4A1E111EFCD17047016821F072
:1006500001010160016821F010210160016821F4AD
:1006600000410160416821F44051416042F28D0136
:10067000C160016841F00C0101601E4988421BD134
:10068000016841F020010160016821F04001016032
:10069000016821F010010160016821F08001016012
:1006A000016821F480710160016821F0400101605E
:1006B000016821F0010101600F49884209D1016AF6
:1006C00041F0400101620D49096841F0C0010B4A47
:1006D0001160016841F00101016000BFC16901F4CE
:1006E00000110029FAD000BFC16901F4800100297E
:1006F000FAD07047004C00400044004008380140E8
:10070000014600BFC86900F020000028FAD0888C9C
:10071000C0B27047F0B504460E46174600250CE0FF
:1007200000BFE06900F080000028FAD0705D2085ED
:100730004FF49670FFF780FF6D1CBD42F0D300BFF1
:10074000E06900F040000028FAD0E06920F04000A5
:10075000E061F0BD08B5FFF753FEFFF703FEFFF7BA
:100760004BFF33E01A48FFF7CBFF009001226946A8
:100770001748FFF7CFFF9DF800000D281BD1154843
:10078000FFF794FD0446224612491148FFF7C2FFC5
:100790001148124902680E48FFF7BCFF00200E49BD
:1007A00008600C48FFF782FD0446224609490848C4
:1007B000FFF7B0FF0AE09DF800000849064A1268FA
:1007C000885405480068401C03490860CAE70000D7
:1007D0000044004031000020340000203800002098
:1007E0004FF04070E1EE100A704700000C0800085E
:1007F0000000002038000000C40100084408000880
:100800003800002080060000E001000800476976FB
:100810006520526564204C454420636F6E74726F8E
:100820006C20696E707574202859203D204F6E2C05
:10083000204E203D206F6666293A0D0A000D0A0001
:0408400000000000B4
:040000050800018965
:00000001FF
